{
  "contractName": "Flashloan",
  "abi": [
    {
      "inputs": [
        {
          "internalType": "contract ILendingPoolAddressesProvider",
          "name": "_addressProvider",
          "type": "address"
        }
      ],
      "stateMutability": "nonpayable",
      "type": "constructor"
    },
    {
      "inputs": [],
      "name": "ADDRESSES_PROVIDER",
      "outputs": [
        {
          "internalType": "contract ILendingPoolAddressesProvider",
          "name": "",
          "type": "address"
        }
      ],
      "stateMutability": "view",
      "type": "function",
      "constant": true
    },
    {
      "inputs": [],
      "name": "LENDING_POOL",
      "outputs": [
        {
          "internalType": "contract ILendingPool",
          "name": "",
          "type": "address"
        }
      ],
      "stateMutability": "view",
      "type": "function",
      "constant": true
    },
    {
      "inputs": [
        {
          "internalType": "address",
          "name": "_PriceFeedAddress",
          "type": "address"
        }
      ],
      "name": "set_address",
      "outputs": [],
      "stateMutability": "nonpayable",
      "type": "function"
    },
    {
      "inputs": [],
      "name": "call_get_prices",
      "outputs": [
        {
          "internalType": "int256",
          "name": "",
          "type": "int256"
        }
      ],
      "stateMutability": "view",
      "type": "function",
      "constant": true
    },
    {
      "inputs": [
        {
          "internalType": "address[]",
          "name": "assets",
          "type": "address[]"
        },
        {
          "internalType": "uint256[]",
          "name": "amounts",
          "type": "uint256[]"
        },
        {
          "internalType": "uint256[]",
          "name": "premiums",
          "type": "uint256[]"
        },
        {
          "internalType": "address",
          "name": "initiator",
          "type": "address"
        },
        {
          "internalType": "bytes",
          "name": "params",
          "type": "bytes"
        }
      ],
      "name": "executeOperation",
      "outputs": [
        {
          "internalType": "bool",
          "name": "",
          "type": "bool"
        }
      ],
      "stateMutability": "nonpayable",
      "type": "function"
    },
    {
      "inputs": [],
      "name": "start_flashloan",
      "outputs": [],
      "stateMutability": "nonpayable",
      "type": "function"
    }
  ],
  "bytecode": "0x60c060405234801561001057600080fd5b50604051610b5c380380610b5c8339818101604052602081101561003357600080fd5b8101908080519060200190929190505050808073ffffffffffffffffffffffffffffffffffffffff1660808173ffffffffffffffffffffffffffffffffffffffff1660601b815250508073ffffffffffffffffffffffffffffffffffffffff16630261bf8b6040518163ffffffff1660e01b815260040160206040518083038186803b1580156100c257600080fd5b505afa1580156100d6573d6000803e3d6000fd5b505050506040513d60208110156100ec57600080fd5b810190808051906020019092919050505073ffffffffffffffffffffffffffffffffffffffff1660a08173ffffffffffffffffffffffffffffffffffffffff1660601b81525050505060805160601c60a05160601c6109f461016860003980610595528061084352806109145250806102eb52506109f46000f3fe608060405234801561001057600080fd5b50600436106100625760003560e01c80630542975c1461006757806309270ef41461009b57806346faa8eb146100df57806371fc63c7146100fd578063920f5c8414610107578063b4dcfc77146102b5575b600080fd5b61006f6102e9565b604051808273ffffffffffffffffffffffffffffffffffffffff16815260200191505060405180910390f35b6100dd600480360360208110156100b157600080fd5b81019080803573ffffffffffffffffffffffffffffffffffffffff16906020019092919050505061030d565b005b6100e7610350565b6040518082815260200191505060405180910390f35b6101056103fd565b005b61029d600480360360a081101561011d57600080fd5b810190808035906020019064010000000081111561013a57600080fd5b82018360208201111561014c57600080fd5b8035906020019184602083028401116401000000008311171561016e57600080fd5b90919293919293908035906020019064010000000081111561018f57600080fd5b8201836020820111156101a157600080fd5b803590602001918460208302840111640100000000831117156101c357600080fd5b9091929391929390803590602001906401000000008111156101e457600080fd5b8201836020820111156101f657600080fd5b8035906020019184602083028401116401000000008311171561021857600080fd5b9091929391929390803573ffffffffffffffffffffffffffffffffffffffff1690602001909291908035906020019064010000000081111561025957600080fd5b82018360208201111561026b57600080fd5b8035906020019184600183028401116401000000008311171561028d57600080fd5b90919293919293905050506107af565b60405180821515815260200191505060405180910390f35b6102bd610912565b604051808273ffffffffffffffffffffffffffffffffffffffff16815260200191505060405180910390f35b7f000000000000000000000000000000000000000000000000000000000000000081565b806000806101000a81548173ffffffffffffffffffffffffffffffffffffffff021916908373ffffffffffffffffffffffffffffffffffffffff16021790555050565b60008060008054906101000a900473ffffffffffffffffffffffffffffffffffffffff1690508073ffffffffffffffffffffffffffffffffffffffff16638e15f4736040518163ffffffff1660e01b815260040160206040518083038186803b1580156103bc57600080fd5b505afa1580156103d0573d6000803e3d6000fd5b505050506040513d60208110156103e657600080fd5b810190808051906020019092919050505091505090565b60003090506060600167ffffffffffffffff8111801561041c57600080fd5b5060405190808252806020026020018201604052801561044b5781602001602082028036833780820191505090505b50905073ff795577d9ac8bd7d90ee22b6c1703490b6512fd8160008151811061047057fe5b602002602001019073ffffffffffffffffffffffffffffffffffffffff16908173ffffffffffffffffffffffffffffffffffffffff16815250506060600167ffffffffffffffff811180156104c457600080fd5b506040519080825280602002602001820160405280156104f35781602001602082028036833780820191505090505b50905060648160008151811061050557fe5b6020026020010181815250506060600167ffffffffffffffff8111801561052b57600080fd5b5060405190808252806020026020018201604052801561055a5781602001602082028036833780820191505090505b50905060018160008151811061056c57fe5b6020026020010181815250506000849050606060405180602001604052806000815250905060007f000000000000000000000000000000000000000000000000000000000000000073ffffffffffffffffffffffffffffffffffffffff1663ab9c4b5d888888888888886040518863ffffffff1660e01b8152600401808873ffffffffffffffffffffffffffffffffffffffff1681526020018060200180602001806020018773ffffffffffffffffffffffffffffffffffffffff168152602001806020018661ffff16815260200185810385528b818151815260200191508051906020019060200280838360005b8381101561067657808201518184015260208101905061065b565b5050505090500185810384528a818151815260200191508051906020019060200280838360005b838110156106b857808201518184015260208101905061069d565b50505050905001858103835289818151815260200191508051906020019060200280838360005b838110156106fa5780820151818401526020810190506106df565b50505050905001858103825287818151815260200191508051906020019080838360005b8381101561073957808201518184015260208101905061071e565b50505050905090810190601f1680156107665780820380516001836020036101000a031916815260200191505b509b505050505050505050505050600060405180830381600087803b15801561078e57600080fd5b505af11580156107a2573d6000803e3d6000fd5b5050505050505050505050565b600080600090505b8a8a90508110156109005760006107fb8888848181106107d357fe5b905060200201358b8b858181106107e657fe5b9050602002013561093690919063ffffffff16565b90508b8b8381811061080957fe5b9050602002013573ffffffffffffffffffffffffffffffffffffffff1673ffffffffffffffffffffffffffffffffffffffff1663095ea7b37f0000000000000000000000000000000000000000000000000000000000000000836040518363ffffffff1660e01b8152600401808373ffffffffffffffffffffffffffffffffffffffff16815260200182815260200192505050602060405180830381600087803b1580156108b657600080fd5b505af11580156108ca573d6000803e3d6000fd5b505050506040513d60208110156108e057600080fd5b8101908080519060200190929190505050505080806001019150506107b7565b50600190509998505050505050505050565b7f000000000000000000000000000000000000000000000000000000000000000081565b6000808284019050838110156109b4576040517f08c379a000000000000000000000000000000000000000000000000000000000815260040180806020018281038252601b8152602001807f536166654d6174683a206164646974696f6e206f766572666c6f77000000000081525060200191505060405180910390fd5b809150509291505056fea2646970667358221220a695970c7b356b5985e3e87bae6f74e90edf015c353e2a5f0af1c695ebded40c64736f6c634300060c0033",
  "immutableReferences": {
    "519": [
      {
        "length": 32,
        "start": 747
      }
    ],
    "522": [
      {
        "length": 32,
        "start": 1429
      },
      {
        "length": 32,
        "start": 2115
      },
      {
        "length": 32,
        "start": 2324
      }
    ]
  },
  "source": "// SPDX-License-Identifier: MIT\r\npragma solidity >=0.4.22 <=0.8.7;\r\n\r\n\r\n/*\r\n\r\nSet up a contract called Flashloan that can call \r\nthe PriceFeed contract and store the prices received \r\nfrom get_prices into a global variables (this \r\nglobal variable is not used, just to test if you are\r\nable to have contracts interact with each other). \r\nThe Flashloan contract should also have a function \r\ncalled start_flashloan, when this function is \r\ncalled, it should attempt to borrow 100 Dai, perform \r\nno trades, and simply return the Dai at the end + pay \r\nthe fee. Perform the flashloan using Aave.\r\n\r\n*/\r\n\r\nimport \"./PriceFeed.sol\";\r\nimport \"@aave/protocol-v2/contracts/interfaces/ILendingPoolAddressesProvider.sol\";\r\nimport \"@aave/protocol-v2/contracts/interfaces/ILendingPool.sol\";\r\nimport \"@aave/protocol-v2/contracts/flashloan/base/FlashLoanReceiverBase.sol\";\r\nimport \"@aave/protocol-v2/contracts/dependencies/openzeppelin/contracts/IERC20.sol\";\r\n\r\ncontract Flashloan is FlashLoanReceiverBase{\r\n\r\n\r\n    address PriceFeedAddress;\r\n\r\n    function set_address(address _PriceFeedAddress) external {\r\n        PriceFeedAddress = _PriceFeedAddress;\r\n    }\r\n\r\n    function call_get_prices() external view returns(int) {\r\n        PriceFeed pricefeed = PriceFeed(PriceFeedAddress);\r\n        return pricefeed.getLatestPrice();\r\n    }\r\n\r\n\r\n    constructor(ILendingPoolAddressesProvider _addressProvider) FlashLoanReceiverBase(_addressProvider) public {}\r\n\r\n    function executeOperation(\r\n        address[] calldata assets,\r\n        uint256[] calldata amounts,\r\n        uint256[] calldata premiums,\r\n        address initiator,\r\n        bytes calldata params\r\n    ) external override returns (bool) {\r\n\r\n        for (uint i = 0; i < assets.length; i++) {\r\n            uint amountOwing = amounts[i].add(premiums[i]);\r\n            IERC20(assets[i]).approve(address(LENDING_POOL), amountOwing);\r\n        }\r\n\r\n        return true;\r\n    }\r\n\r\n    function start_flashloan() external {\r\n        \r\n        address recipient = address(this);\r\n\r\n        address[] memory assets = new address[](1);\r\n        assets[0] = address(0xFf795577d9AC8bD7D90Ee22b6C1703490b6512FD); // DAI contract address\r\n\r\n        uint256[] memory amounts = new uint256[](1);\r\n        amounts[0] = 100;\r\n\r\n        uint[] memory modes = new uint256[](1);\r\n        modes[0] = 1;\r\n\r\n        address onBehalfOf = recipient;\r\n\r\n        bytes memory params = \"\";\r\n        uint16 referralCode = 0;\r\n\r\n        LENDING_POOL.flashLoan(recipient, assets, amounts, modes, onBehalfOf, params, referralCode);\r\n\r\n    }\r\n\r\n    \r\n\r\n}",
  "sourcePath": "C:\\Users\\matth\\Documents\\blockchain\\pricefeed\\contracts\\Flashloan.sol",
  "compiler": {
    "name": "solc",
    "version": "0.6.12+commit.27d51765.Emscripten.clang"
  },
  "schemaVersion": "3.4.3",
  "updatedAt": "2021-08-18T02:00:08.384Z",
  "networkType": "ethereum",
  "devdoc": {
    "kind": "dev",
    "methods": {},
    "version": 1
  },
  "userdoc": {
    "kind": "user",
    "methods": {},
    "version": 1
  }
}