{
  "contractName": "PriceFeed",
  "abi": [
    {
      "inputs": [],
      "stateMutability": "nonpayable",
      "type": "constructor"
    },
    {
      "inputs": [],
      "name": "getLatestPrice",
      "outputs": [
        {
          "internalType": "int256",
          "name": "",
          "type": "int256"
        }
      ],
      "stateMutability": "view",
      "type": "function",
      "constant": true
    }
  ],
  "bytecode": "0x608060405234801561001057600080fd5b50739326bfa02add2366b30bacb125260af6410313316000806101000a81548173ffffffffffffffffffffffffffffffffffffffff021916908373ffffffffffffffffffffffffffffffffffffffff16021790555061016b806100746000396000f3fe608060405234801561001057600080fd5b506004361061002b5760003560e01c80638e15f47314610030575b600080fd5b61003861004e565b6040518082815260200191505060405180910390f35b60008060008060008060008054906101000a900473ffffffffffffffffffffffffffffffffffffffff1673ffffffffffffffffffffffffffffffffffffffff1663feaf968c6040518163ffffffff1660e01b815260040160a06040518083038186803b1580156100bd57600080fd5b505afa1580156100d1573d6000803e3d6000fd5b505050506040513d60a08110156100e757600080fd5b8101908080519060200190929190805190602001909291908051906020019092919080519060200190929190805190602001909291905050509450945094509450945083955050505050509056fea2646970667358221220c5e4663fb7959b67f48648861eb63c017a7c067b0f1da7872180baa449eb4ab164736f6c634300060c0033",
  "immutableReferences": {},
  "source": "// SPDX-License-Identifier: MIT\r\npragma solidity >=0.4.22 <=0.8.7;\r\n\r\n\r\n/*\r\n\r\nSet up a contract called PriceFeed that can read in price data for ETH\r\n(ETH/USDT, ETH/USDC,  ETH/DAI ect) on chain from any two decentralized \r\nexchanges of your choice. Every time the function get_prices is called \r\nit should return the prices for ETH.\r\n\r\n*/\r\n\r\nimport \"@chainlink/contracts/src/v0.6/interfaces/AggregatorV3Interface.sol\";\r\n\r\ncontract PriceFeed {\r\n\r\n    //string public name = \"Price Feed\";\r\n\r\n    AggregatorV3Interface internal feeder;\r\n\r\n    // Used for testing\r\n    //uint public priceval = 1000;\r\n\r\n    constructor() public {\r\n        feeder = AggregatorV3Interface(0x9326BFA02ADD2366b30bacB125260Af641031331);\r\n    }\r\n\r\n    function getLatestPrice () external view returns(int) {\r\n        (\r\n            uint80 round_id,\r\n            int price,\r\n            uint started_at,\r\n            uint time_stamp,\r\n            uint80 answer_round\r\n        ) = feeder.latestRoundData();\r\n\r\n        return price;\r\n    }\r\n    \r\n}",
  "sourcePath": "C:\\Users\\matth\\Documents\\blockchain\\pricefeed\\contracts\\PriceFeed.sol",
  "compiler": {
    "name": "solc",
    "version": "0.6.12+commit.27d51765.Emscripten.clang"
  },
  "schemaVersion": "3.4.3",
  "updatedAt": "2021-08-18T01:59:56.785Z",
  "networkType": "ethereum",
  "devdoc": {
    "kind": "dev",
    "methods": {},
    "version": 1
  },
  "userdoc": {
    "kind": "user",
    "methods": {},
    "version": 1
  }
}